:0400000038EFDDF008
:020000040001F9
:10B95E000FECDDF00E01DA8312000FECDDF00E01BC
:10B96E00DA8112000FECDDF00E01DA851200026EA4
:10B97E000FECDDF002C0D5FE12001DC019F01EC086
:10B98E001AF01FC01BF020C01CF08CECE2F012006D
:10B99E00868486860E01B495B4977C9E849E80968E
:10B9AE0088967C9884981200046EB4ECDCF0520EEB
:10B9BE00BEECDCF004508009BEECDCF00350BEECB3
:10B9CE00DCF0B9ECDCF0120083828380120E0E01E3
:10B9DE00626F110E156FE997E895330EE56F000E45
:10B9EE00E66FE789E88BE78F120001500302F3CF71
:10B9FE0005F0F4CF06F001500402F3500626025073
:10BA0E000302F350062605C001F006C002F0120034
:10BA1E000E01D8B515EFDDF017EFDDF00FEFDDF00D
:10BA2E00DACE01F01F0E0116D8A420EFDDF022EFC2
:10BA3E00DDF00FEFDDF012000E01D951F00B080909
:10BA4E00D96FD98B9F0ED66F848A848CA79BA79DA6
:10BA5E001D0E1D6F1E0E1C6F1C0E6F6F1B0E706F5A
:10BA6E00120002EE8AF03C0EEE6AE806FDE101EEEF
:10BA7E00BAF0140EEE6AE806FDE100EEEBF0080EE9
:10BA8E00EE6AE806FDE10001A8EFEBF023ECDDF035
:10BA9E00010E036E000EDBECDCF03F0E056E550E54
:10BAAE00E82EFED7052EFCD700F0030E036E000E17
:10BABE00DBECDCF0D50E036E010EDBECDCF01200DD
:10BACE00086E08500001EC5DD8B070EFDDF072EF3B
:10BADE00DDF086EFDDF00350046E056AEC51066E64
:10BAEE00076AD8900636073606500124D96E0750DD
:10BAFE000220DA6E04C0DEFF05C0DDFFEC2B120063
:10BB0E00036E0FECDDF00E01DA870FECDDF0D5CE13
:10BB1E0004F00FECDDF00350D8B498EFDDF09CEF9D
:10BB2E00DDF0026A022A9DEFDDF0026A023A024659
:10BB3E000E01DA510218DF0B0218DA6FDA8904509F
:10BB4E001200000E231A000E241A000E251A800E63
:10BB5E00261A1FC00FF020C010F021C011F022C015
:10BB6E0012F023C013F024C014F025C015F026C027
:10BB7E0016F093ECF0F00FC01FF010C020F011C0C3
:10BB8E0021F012C022F01200B4ECDCF0520EBEEC2A
:10BB9E00DCF0BA0EBEECDCF0AFECDCF0530EBEEC1B
:10BBAE00DCF0010E87ECDDF0076E07500A6E0B6AB3
:10BBBE00000E87ECDDF0076E0750096E086A0A501A
:10BBCE0008100A6E0B5009100B6EB9ECDCF00AC0AF
:10BBDE0005F00BC006F01200B4ECDCF0520EBEEC19
:10BBEE00DCF0B40EBEECDCF0AFECDCF0530EBEECD1
:10BBFE00DCF0010E87ECDDF0076E07500A6E0B6A63
:10BC0E00000E87ECDDF0076E0750096E086A0A50C9
:10BC1E0008100A6E0B5009100B6EB9ECDCF00AC05E
:10BC2E0005F00BC006F01200B4ECDCF0520EBEECC8
:10BC3E00DCF0B80EBEECDCF0AFECDCF0530EBEEC7C
:10BC4E00DCF0010E87ECDDF0076E07500A6E0B6A12
:10BC5E00000E87ECDDF0076E0750096E086A0A5079
:10BC6E0008100A6E0B5009100B6EB9ECDCF00AC00E
:10BC7E0005F00BC006F01200B4ECDCF0520EBEEC78
:10BC8E00DCF0B60EBEECDCF0AFECDCF0530EBEEC2E
:10BC9E00DCF0010E87ECDDF0076E07500A6E0B6AC2
:10BCAE00000E87ECDDF0076E0750096E086A0A5029
:10BCBE0008100A6E0B5009100B6EB9ECDCF00AC0BE
:10BCCE0005F00BC006F01200076E07500001EB5D89
:10BCDE00D8B074EFDEF076EFDEF093EFDEF003C057
:10BCEE00D9FF04C0DAFFEB51056E066AD89005360F
:10BCFE00063605500124E16E06500220E26EDECFBC
:10BD0E00E6FFDDCFE5FF03C0D9FF04C0DAFF000E6A
:10BD1E00DE6E000EDD6EEB2B120087928198869EF2
:10BD2E0001040210D8A49EEFDEF0A0EFDEF0A3EF28
:10BD3E00DEF07F82A4EFDEF07F9203040410D8A41D
:10BD4E00ABEFDEF0ADEFDEF0B0EFDEF07988B1EF05
:10BD5E00DEF0799805040610D8A4B8EFDEF0BAEF3D
:10BD6E00DEF0BDEFDEF07E8EBEEFDEF07E9E1200C8
:10BD7E00520E286E2B0E276E000EE82EFED7272EA3
:10BD8E00FCD7282EFAD700D023C01DF024C01EF0F9
:10BD9E0025C01FF026C020F032ECDFF0520E286EC8
:10BDAE002B0E276E000EE82EFED7272EFCD7282E40
:10BDBE00FAD700D023C01DF024C01EF025C01FF0FE
:10BDCE0026C020F03FECE1F0520E286E2B0E276EAF
:10BDDE00000EE82EFED7272EFCD7282EFAD700D03D
:10BDEE001200000E0C6E000E0B6E09500A10D8B425
:10BDFE0003EFDFF005EFDFF02DEFDFF0010E0D6E3C
:10BE0E000DEFDFF0D89009360A360D2A0AAE12EF82
:10BE1E00DFF014EFDFF009EFDFF0D8900B360C36C1
:10BE2E000950075C0A500858D8A020EFDFF022EF27
:10BE3E00DFF027EFDFF00950075E0A50085A0B803B
:10BE4E00D8900A3209320D2E14EFDFF00BC007F036
:10BE5E000CC008F012001DC0D9FF1EC0DAFF460E3E
:10BE6E00DF6E1FC0D9FF20C0DAFF460EDF6E20EE58
:10BE7E0001F01D50D9261E50DA22000EDF6E20EE84
:10BE8E0001F01F50D9262050DA22000EDF6E1DC0A1
:10BE9E000EF01EC00FF0BEECEAF01FC00EF020C078
:10BEAE000FF0BEECEAF0150E226E4B0E216EBE0E9A
:10BEBE00E82EFED7212EFCD7222EFAD700D01DC099
:10BECE0019F01EC01AF01FC01BF020C01CF08CEC25
:10BEDE00E2F01200296E2950D8A478EFDFF07AEF45
:10BEEE00DFF0BAEFDFF023C01DF024C01EF025C036
:10BEFE001FF026C020F032ECDFF0520E286E2B0E13
:10BF0E00276E000EE82EFED7272EFCD7282EFAD746
:10BF1E0000D023C01DF024C01EF025C01FF026C087
:10BF2E0020F03FECE1F0520E286E2B0E276E000E25
:10BF3E00E82EFED7272EFCD7282EFAD700D023C006
:10BF4E001DF024C01EF025C01FF026C020F032ECDC
:10BF5E00DFF023C01DF024C01EF025C01FF026C048
:10BF6E0020F032ECDFF01200296E2950D8A4C2EF77
:10BF7E00DFF0C4EFDFF004EFE0F023C01DF024C0CB
:10BF8E001EF025C01FF026C020F032ECDFF0520E5E
:10BF9E00286E2B0E276E000EE82EFED7272EFCD70E
:10BFAE00282EFAD700D023C01DF024C01EF025C0C5
:10BFBE001FF026C020F03FECE1F0520E286E2B0E43
:10BFCE00276E000EE82EFED7272EFCD7282EFAD786
:10BFDE0000D023C01DF024C01EF025C01FF026C0C7
:10BFEE0020F032ECDFF023C01DF024C01EF025C07F
:10BFFE001FF026C020F032ECDFF012001DC0D9FF7A
:10C00E001EC0DAFF170EDF6E1FC0D9FF20C0DAFF89
:10C01E00170EDF6E20EE01F01D50D9261E50DA22CB
:10C02E00010EDF6E20EE01F01F50D9262050DA22CD
:10C03E00010EDF6E40EFE0F01DC0D9FF1EC0DAFF2B
:10C04E00DF2A1FC0D9FF20C0DAFFDF2A1DC00EF085
:10C05E001EC00FF0BEECEAF01FC00EF020C00FF0B5
:10C06E00BEECEAF0D00E216ECA0EE82EFED7212EBF
:10C07E00FCD71DC0D9FF1EC0DAFF180EDF604AEFD5
:10C08E00E0F04CEFE0F058EFE0F01FC0D9FF20C019
:10C09E00DAFF170EDF6456EFE0F058EFE0F023EF13
:10C0AE00E0F01DC019F01EC01AF01FC01BF020C01A
:10C0BE001CF08CECE2F012001DC0D9FF1EC0DAFF9E
:10C0CE001D0EDF6E1FC0D9FF20C0DAFF1C0EDF6E03
:10C0DE0020EE01F01D50D9261E50DA22000EDF6E22
:10C0EE0020EE01F01F50D9262050DA22010EDF6E0D
:10C0FE00AEEFE0F01DC0D9FF1EC0DAFFDF500A0F11
:10C10E001DC0D9FF1EC0DAFFDF6E1FC0D9FF20C0D1
:10C11E00DAFFDF500A0F1FC0D9FF20C0DAFFDF6E33
:10C12E001DC00EF01EC00FF0BEECEAF01FC00EF0E8
:10C13E0020C00FF0BEECEAF0190E226E5A0E216EE0
:10C14E00B20EE82EFED7212EFCD7222EFAD71DC016
:10C15E00D9FF1EC0DAFF1E0EDF60B8EFE0F0BAEFB7
:10C16E00E0F0C6EFE0F01FC0D9FF20C0DAFF1D0ED1
:10C17E00DF64C4EFE0F0C6EFE0F081EFE0F01DC049
:10C18E0019F01EC01AF01FC01BF020C01CF08CEC62
:10C19E00E2F012001DC0D9FF1EC0DAFF1C0EDF6ECA
:10C1AE001FC0D9FF20C0DAFF1D0EDF6E20EE01F09A
:10C1BE001D50D9261E50DA22010EDF6E20EE01F040
:10C1CE001F50D9262050DA22000EDF6E1CEFE1F050
:10C1DE001DC0D9FF1EC0DAFFDF500A0F1DC0D9FFE8
:10C1EE001EC0DAFFDF6E1FC0D9FF20C0DAFFDF509E
:10C1FE000A0F1FC0D9FF20C0DAFFDF6E1DC00EF080
:10C20E001EC00FF0BEECEAF01FC00EF020C00FF003
:10C21E00BEECEAF0190E226E5A0E216EB20EE82E08
:10C22E00FED7212EFCD7222EFAD71DC0D9FF1EC055
:10C23E00DAFF1E0EDF6026EFE1F028EFE1F034EFBB
:10C24E00E1F01FC0D9FF20C0DAFF1D0EDF6432EF10
:10C25E00E1F034EFE1F0EFEFE0F01DC019F01EC099
:10C26E001AF01FC01BF020C01CF08CECE2F0120084
:10C27E001DC0D9FF1EC0DAFF350EDF6E1FC0D9FFFD
:10C28E0020C0DAFF460EDF6E20EE01F01D50D926DB
:10C29E001E50DA22000EDF6E20EE01F01F50D9265E
:10C2AE002050DA22010EDF6E8BEFE1F01DC0D9FFB8
:10C2BE001EC0DAFFDF500A0F1DC0D9FF1EC0DAFF05
:10C2CE00DF6E1FC0D9FF20C0DAFFDF500A0F1FC07C
:10C2DE00D9FF20C0DAFFDF6E1DC00EF01EC00FF0BA
:10C2EE00BEECEAF01FC00EF020C00FF0BEECEAF07C
:10C2FE00210E226E780E216E980EE82EFED7212E7C
:10C30E00FCD7222EFAD700D01DC0D9FF1EC0DAFFEF
:10C31E003C0EDF6095EFE1F097EFE1F0A3EFE1F077
:10C32E001FC0D9FF20C0DAFF4A0EDF64A1EFE1F093
:10C33E00A3EFE1F05DEFE1F01DC019F01EC01AF0A1
:10C34E001FC01BF020C01CF08CECE2F012001DC0D0
:10C35E00D9FF1EC0DAFF460EDF6E1FC0D9FF20C008
:10C36E00DAFF490EDF6E20EE01F01D50D9261E5069
:10C37E00DA22000EDF6E20EE01F01F50D92620507B
:10C38E00DA22000EDF6EFAEFE1F01DC0D9FF1EC0FB
:10C39E00DAFFDF500A0F1DC0D9FF1EC0DAFFDF6EB5
:10C3AE001FC0D9FF20C0DAFFDF500A0F1FC0D9FF10
:10C3BE0020C0DAFFDF6E1DC00EF01EC00FF0BEEC07
:10C3CE00EAF01FC00EF020C00FF0BEECEAF0150E22
:10C3DE00226E4B0E216EBE0EE82EFED7212EFCD7FE
:10C3EE00222EFAD700D01DC0D9FF1EC0DAFF5A0E7A
:10C3FE00DF6004EFE2F006EFE2F012EFE2F01FC0B2
:10C40E00D9FF20C0DAFF590EDF6410EFE2F012EF11
:10C41E00E2F0CCEFE1F01DC019F01EC01AF01FC003
:10C42E001BF020C01CF08CECE2F012001DC0D9FFF6
:10C43E001EC0DAFF500EDF6E1FC0D9FF20C0DAFF1C
:10C44E00500EDF6E20EE01F01D50D9261E50DA225E
:10C45E00010EDF6E20EE01F01F50D9262050DA2299
:10C46E00010EDF6E69EFE2F01DC0D9FF1EC0DAFFCC
:10C47E00DF500A0F1DC0D9FF1EC0DAFFDF6E1FC0CE
:10C48E00D9FF20C0DAFFDF500A0F1FC0D9FF20C02E
:10C49E00DAFFDF6E1DC00EF01EC00FF0BEECEAF02C
:10C4AE001FC00EF020C00FF0BEECEAF0090E226E97
:10C4BE001E0E216EE40EE82EFED7212EFCD7222E64
:10C4CE00FAD700D01DC0D9FF1EC0DAFF640EDF60A0
:10C4DE0073EFE2F075EFE2F081EFE2F01FC0D9FFEB
:10C4EE0020C0DAFF630EDF647FEFE2F081EFE2F04F
:10C4FE003BEFE2F01DC019F01EC01AF01FC01BF07A
:10C50E0020C01CF08CECE2F01200E8EFE2F019C053
:10C51E00D9FF1AC0DAFF000EDF6E19C0E1FF1AC094
:10C52E00E2FFDFCFE7FF1BC0D9FF1CC0DAFF000E12
:10C53E00DF6E1BC0E1FF1CC0E2FFDFCFE7FF19C0BB
:10C54E000EF01AC00FF0BEECEAF01BC00EF01CC0CD
:10C55E000FF0BEECEAF0350EE82EFED700F019C053
:10C56E00D9FF1AC0DAFFDF50D8A4C0EFE2F0C2EF55
:10C57E00E2F0D0EFE2F01BC0D9FF1CC0DAFFDF50B3
:10C58E00D8A4CCEFE2F0CEEFE2F0D0EFE2F000EF85
:10C59E00E3F019C0D9FF1AC0DAFF000EDF6E1BC020
:10C5AE00D9FF1CC0DAFF000EDF6E19C00EF01AC0E4
:10C5BE000FF0BEECEAF01BC00EF01CC00FF0BEEC8C
:10C5CE00EAF019C0D9FF1AC0DAFFDF50D8B4F2EF83
:10C5DE00E2F0F4EFE2F000EFE3F01BC0D9FF1CC075
:10C5EE00DAFFDF50D8A4FEEFE2F000EFE3F08EEFBB
:10C5FE00E2F0120085948598839E879C7D947D98A9
:10C60E007B9E7F9C86840E01B495BD508F0B400996
:10C61E00BD6EE00EBE16BF50F00B0109BF6E01C01D
:10C62E00BCFFBD8E0A0E746F0B0E696F000EA36EEB
:10C63E00000EA06EA48EA18E20EE04F00350D9261B
:10C64E000450DA227D0EDE6E0F0EDD6E20EE06F049
:10C65E000350D9260450DA22040EDF6E20EE04F0C9
:10C66E000550D9260650DA227F0EDE6E0F0EDD6ED5
:10C67E0020EE06F00550D9260650DA22060EDF6EA1
:10C68E0020EE02F00350D9260450DA22A30EDE6EFD
:10C69E000F0EDD6E20EE02F00550D9260650DA227E
:10C6AE00A00EDE6E0F0EDD6EBC50076E086A20EE19
:10C6BE0007F00350D9260450DA2207C0DEFF08C067
:10C6CE00DDFFBC50076E086A20EE07F00550D92634
:10C6DE000650DA2207C0DEFF08C0DDFF1200296E09
:10C6EE002950D8A47DEFE3F07FEFE3F0C3EFE3F042
:10C6FE00520E286E2B0E276E000EE82EFED7272E1A
:10C70E00FCD7282EFAD700D023C01DF024C01EF06F
:10C71E0025C01FF026C020F032ECDFF0520E286E3E
:10C72E002B0E276E000EE82EFED7272EFCD7282EB6
:10C73E00FAD700D023C01DF024C01EF025C01FF074
:10C74E0026C020F063ECE0F023C01DF024C01EF0E4
:10C75E0025C01FF026C020F063ECE0F0520E286ECC
:10C76E002B0E276E000EE82EFED7272EFCD7282E76
:10C77E00FAD700D0EDEFE3F023C01DF024C01EF079
:10C78E0025C01FF026C020F0D1ECE0F023C01DF034
:10C79E0024C01EF025C01FF026C020F0D1ECE0F022
:10C7AE0023C01DF024C01EF025C01FF026C020F0AF
:10C7BE0032ECDFF023C01DF024C01EF025C01FF0A8
:10C7CE0026C020F032ECDFF0B5EFE3F01200296E58
:10C7DE002950D8A4F5EFE3F0F7EFE3F03BEFE4F0E8
:10C7EE00520E286E2B0E276E000EE82EFED7272E29
:10C7FE00FCD7282EFAD700D023C01DF024C01EF07F
:10C80E0025C01FF026C020F032ECDFF0520E286E4D
:10C81E002B0E276E000EE82EFED7272EFCD7282EC5
:10C82E00FAD700D023C01DF024C01EF025C01FF083
:10C83E0026C020F0D1ECE0F023C01DF024C01EF085
:10C84E0025C01FF026C020F0D1ECE0F0520E286E6D
:10C85E002B0E276E000EE82EFED7272EFCD7282E85
:10C86E00FAD700D065EFE4F023C01DF024C01EF00F
:10C87E0025C01FF026C020F063ECE0F023C01DF0B1
:10C88E0024C01EF025C01FF026C020F063ECE0F09F
:10C89E0023C01DF024C01EF025C01FF026C020F0BE
:10C8AE0032ECDFF023C01DF024C01EF025C01FF0B7
:10C8BE0026C020F032ECDFF02DEFE4F0120036C08F
:10C8CE00D9FF37C0DAFF000EDE6E000EDD6E32C00D
:10C8DE00D9FF33C0DAFFDF503F6E3F04466E46503D
:10C8EE003F6E406AD8903F36403634C041F035C076
:10C8FE0042F03F50412640504222FE0E4124D96E56
:10C90E00FF0E4220DA6EDF50456EACEFE4F03BC016
:10C91E001DF03CC01EF03DC01FF03EC020F005ECE7
:10C92E00E0F036C0D9FF37C0DAFFDECF3FF0DDCF03
:10C93E0040F0010E3F26000E402236C0D9FF37C010
:10C94E00DAFF3FC0DEFF40C0DDFF46503F6E406A5B
:10C95E00D8903F3640363F503824D96E405039205B
:10C96E00DA6E36C0E1FF37C0E2FFDE50E65CDE5025
:10C97E00E658D8A0C5EFE4F0C7EFE4F08EEFE4F090
:10C98E003AC02AF03BC02BF03CC02CF03DC02DF03D
:10C99E003EC02EF04550A3ECE7F036C0D9FF37C0AD
:10C9AE00DAFF000EDE6E000EDD6E460676EFE4F068
:10C9BE001200296E2950D8A4E7EFE4F0E9EFE4F075
:10C9CE0037EFE5F0520E286E2B0E276E000EE82E76
:10C9DE00FED7272EFCD7282EFAD700D023C01DF065
:10C9EE0024C01EF025C01FF026C020F032ECDFF070
:10C9FE00520E286E2B0E276E000EE82EFED7272E17
:10CA0E00FCD7282EFAD700D023C01DF024C01EF06C
:10CA1E0025C01FF026C020F063ECE0F023C01DF00F
:10CA2E0024C01EF025C01FF026C020F063ECE0F0FD
:10CA3E0023C01DF024C01EF025C01FF026C020F01C
:10CA4E0063ECE0F0520E286E2B0E276E000EE82ED1
:10CA5E00FED7272EFCD7282EFAD700D061EFE5F0AF
:10CA6E0023C01DF024C01EF025C01FF026C020F0EC
:10CA7E00D1ECE0F023C01DF024C01EF025C01FF045
:10CA8E0026C020F0D1ECE0F023C01DF024C01EF033
:10CA9E0025C01FF026C020F0D1ECE0F023C01DF021
:10CAAE0024C01EF025C01FF026C020F032ECDFF0AF
:10CABE0029EFE5F01200296E2950D8A469EFE5F0B0
:10CACE006BEFE5F0B9EFE5F0520E286E2B0E276EE8
:10CADE00000EE82EFED7272EFCD7282EFAD700D030
:10CAEE0023C01DF024C01EF025C01FF026C020F06C
:10CAFE0032ECDFF0520E286E2B0E276E000EE82E53
:10CB0E00FED7272EFCD7282EFAD700D023C01DF033
:10CB1E0024C01EF025C01FF026C020F0D1ECE0F09E
:10CB2E0023C01DF024C01EF025C01FF026C020F02B
:10CB3E00D1ECE0F023C01DF024C01EF025C01FF084
:10CB4E0026C020F0D1ECE0F0520E286E2B0E276E90
:10CB5E00000EE82EFED7272EFCD7282EFAD700D0AF
:10CB6E00E3EFE5F023C01DF024C01EF025C01FF03A
:10CB7E0026C020F063ECE0F023C01DF024C01EF0B0
:10CB8E0025C01FF026C020F063ECE0F023C01DF09E
:10CB9E0024C01EF025C01FF026C020F063ECE0F08C
:10CBAE0023C01DF024C01EF025C01FF026C020F0AB
:10CBBE0032ECDFF0ABEFE5F012005B345C345E6E0E
:10CBCE005E50D8A4EDEFE5F0EFEFE5F0F9EFE5F00C
:10CBDE00000E596E000E5A6E000E5B6E000E5C6EED
:10CBEE0067EFE6F059C060F05AC061F05BC062F0CA
:10CBFE005CC063F0200E0AEFE6F00001D8906333BC
:10CC0E00623361336033E82E04EFE6F060515D6EFF
:10CC1E005B8EFF0E5916FF0E5A16FF0E5B16000E98
:10CC2E005C16960E5E5E5EBE21EFE6F01FEFE6F03E
:10CC3E0037EFE6F05E50800A970FD8B029EFE6F096
:10CC4E002BEFE6F02DEFE6F0EFEFE5F0D8905C324B
:10CC5E005B325A3259325E3E2DEFE6F04FEFE6F080
:10CC6E001F0E5E643DEFE6F03FEFE6F047EFE6F0B5
:10CC7E00EFEFE5F0D89059365A365B365C365E06E5
:10CC8E005E50D8A44DEFE6F04FEFE6F041EFE6F040
:10CC9E005D50D8B455EFE6F057EFE6F05FEFE6F0F3
:10CCAE005C1E5B1E5A1E596C000E5A225B225C22C1
:10CCBE0059C059F05AC05AF05BC05BF05CC05CF0D2
:10CCCE001200000E026E010E016E000E046E010EB9
:10CCDE00036E000E066E010E056E94ECDEF0290E4C
:10CCEE000F6E960E0E6E7F0EE82EFED70E2EFCD712
:10CCFE000F2EFAD700F0F3ECDDF00001EE51020D2D
:10CD0E000CC00EF00DC00FF0F3500E26F4500F2293
:10CD1E005A0E0E24D96E000E0F20DA6E05C0DEFFFD
:10CD2E0006C0DDFF43ECDEF00001EE51020DF3CF45
:10CD3E000EF0F4CF0FF00E500C24D96E0F500D20C4
:10CD4E00DA6E05C0DEFF06C0DDFF1BECDEF0000173
:10CD5E00EE51020D0CC00EF00DC00FF0F3500E266A
:10CD6E00F4500F221E0E0E24D96E000E0F20DA6E16
:10CD7E0005C0DEFF06C0DDFFCBECDDF00001EE519D
:10CD8E00020D0CC00EF00DC00FF0F3500E26F45035
:10CD9E000F223C0E0E24D96E000E0F20DA6E05C047
:10CDAE00DEFF06C0DDFFEE2B000E026E000E016EE2
:10CDBE00000E046E000E036E000E066E000E056E63
:10CDCE0094ECDEF00F0E0001EE19D8A4F1EFE6F0B0
:10CDDE00F3EFE6F0F4EFE6F07C8E1200296E2950A8
:10CDEE00D8A4FCEFE6F0FEEFE6F058EFE7F0520EB7
:10CDFE00286E2B0E276E000EE82EFED7272EFCD7A0
:10CE0E00282EFAD700D023C01DF024C01EF025C056
:10CE1E001FF026C020F032ECDFF0520E286E2B0EE3
:10CE2E00276E000EE82EFED7272EFCD7282EFAD717
:10CE3E0000D023C01DF024C01EF025C01FF026C058
:10CE4E0020F0AEECE1F0290E286E960E276E7F0EC6
:10CE5E00E82EFED7272EFCD7282EFAD700F023C0B7
:10CE6E001DF024C01EF025C01FF026C020F0D1EC0E
:10CE7E00E0F023C01DF024C01EF025C01FF026C018
:10CE8E0020F0D1ECE0F0520E286E2B0E276E000E25
:10CE9E00E82EFED7272EFCD7282EFAD700D0A2EFE9
:10CEAE00E7F023C01DF024C01EF025C01FF026C0E1
:10CEBE0020F063ECE0F023C01DF024C01EF025C06E
:10CECE001FF026C020F063ECE0F0090E286E1E0E57
:10CEDE00276EE40EE82EFED7272EFCD7282EFAD783
:10CEEE0000D023C01DF024C01EF025C01FF026C0A8
:10CEFE0020F0AEECE1F023C01DF024C01EF025C0E2
:10CF0E001FF026C020F032ECDFF023C01DF024C04D
:10CF1E001EF025C01FF026C020F032ECDFF0520EBE
:10CF2E00286E2B0E276E000EE82EFED7272EFCD76E
:10CF3E00282EFAD700D01200316E27EFE8F02BC062
:10CF4E001DF02CC01EF02DC01FF02EC020F0C4EC22
:10CF5E00DCF05CEFE8F02BC023F02CC024F02DC0E9
:10CF6E0025F02EC026F02A50EEECE3F05CEFE8F050
:10CF7E002BC023F02CC024F02DC025F02EC026F09F
:10CF8E002A5076ECE3F05CEFE8F02BC023F02CC0D7
:10CF9E0024F02DC025F02EC026F02A50BFECDEF076
:10CFAE005CEFE8F02BC023F02CC024F02DC025F050
:10CFBE002EC026F02A50F5ECE6F05CEFE8F02BC020
:10CFCE0023F02CC024F02DC025F02EC026F02A50C0
:10CFDE005DECE8F05CEFE8F02BC023F02CC024F001
:10CFEE002DC025F02EC026F02A5062ECE5F05CEF45
:10CFFE00E8F02BC023F02CC024F02DC025F02EC05D
:10D00E0026F02A50E0ECE4F05CEFE8F02BC023F0C1
:10D01E002CC024F02DC025F02EC026F02A50BBECDB
:10D02E00DFF05CEFE8F02BC023F02CC024F02DC015
:10D03E0025F02EC026F02A5071ECDFF05CEFE8F000
:10D04E0031502F6E306A3050000AD8B431EFE8F00C
:10D05E005CEFE8F02F50000AD8B4A6EFE7F0010A13
:10D06E00D8B4B2EFE7F0030AD8B4BFEFE7F0010A85
:10D07E00D8B4CCEFE7F0070AD8B4D9EFE7F0010A3D
:10D08E00D8B4E6EFE7F0030AD8B4F3EFE7F0010AFD
:10D09E00D8B400EFE8F00F0AD8B40DEFE8F0010AAB
:10D0AE00D8B41AEFE8F05CEFE8F01200296E2950C0
:10D0BE00D8A464EFE8F066EFE8F0C0EFE8F0520EA7
:10D0CE00286E2B0E276E000EE82EFED7272EFCD7CD
:10D0DE00282EFAD700D023C01DF024C01EF025C084
:10D0EE001FF026C020F032ECDFF0520E286E2B0E11
:10D0FE00276E000EE82EFED7272EFCD7282EFAD745
:10D10E0000D023C01DF024C01EF025C01FF026C085
:10D11E0020F0AEECE1F0290E286E960E276E7F0EF3
:10D12E00E82EFED7272EFCD7282EFAD700F023C0E4
:10D13E001DF024C01EF025C01FF026C020F063ECA9
:10D14E00E0F023C01DF024C01EF025C01FF026C045
:10D15E0020F063ECE0F0520E286E2B0E276E000EC0
:10D16E00E82EFED7272EFCD7282EFAD700D018EFA0
:10D17E00E9F023C01DF024C01EF025C01FF026C00C
:10D18E0020F0D1ECE0F023C01DF024C01EF025C02D
:10D19E001FF026C020F0D1ECE0F0520E286E2B0EC0
:10D1AE00276E000EE82EFED7272EFCD7282EFAD794
:10D1BE0000D023C01DF024C01EF025C01FF026C0D5
:10D1CE0020F0AEECE1F0290E286E960E276E7F0E43
:10D1DE00E82EFED7272EFCD7282EFAD700F023C034
:10D1EE001DF024C01EF025C01FF026C020F032EC2A
:10D1FE00DFF0520E286E2B0E276E000EE82EFED795
:10D20E00272EFCD7282EFAD700D023C01DF024C01D
:10D21E001EF025C01FF026C020F032ECDFF0B2EF7A
:10D22E00E8F01200DCEFE9F0000E026E010E016E66
:10D23E00000E046E010E036E000E066E010E056EDC
:10D24E0094ECDEF0F3ECDDF0D8900536063620EEE9
:10D25E0006F02350D9262450DA2205C0DEFF06C080
:10D26E00DDFF000E346E000E336E000E366E090EAC
:10D27E00356E35C02DF036C02EF0D8902D362E36A8
:10D28E0025C02FF026C030F02D502F262E503022E4
:10D29E005A0E2F24D96E000E3020DA6EDE50335C1B
:10D2AE00DE503458D8B05EEFE9F060EFE9F079EF78
:10D2BE00E9F035C02DF036C02EF0D8902D362E3632
:10D2CE0025C02FF026C030F02D502F262E503022A4
:10D2DE005A0E2F24D96E000E3020DA6EDECF33F0C8
:10D2EE00DDCF34F0354A362A36BE87EFE9F03650B8
:10D2FE0009E10F0E355CD8A087EFE9F089EFE9F070
:10D30E0040EFE9F020EE06F02350D9262450DA2221
:10D31E003350DE5C3450DE58D8A098EFE9F09AEF27
:10D32E00E9F0BDEFE9F027C019F028C01AF029C0C6
:10D33E001BF02AC01CF08CECE2F0290E2E6E960E1D
:10D34E002D6E7F0EE82EFED72D2EFCD72E2EFAD761
:10D35E0000F0808627C01DF028C01EF029C01FF0E7
:10D36E002AC020F01DECE2F0DCEFE9F0809627C039
:10D37E001DF028C01EF029C01FF02AC020F005ECB9
:10D38E00E0F02BC0D9FF2CC0DAFFDECF2DF0DDCFC1
:10D39E002EF0010E2D26000E2E222BC0D9FF2CC0F2
:10D3AE00DAFF2DC0DEFF2EC0DDFF80A6E1EFE9F033
:10D3BE00E3EFE9F01BEFE9F01200096E0950D8B463
:10D3CE00EBEFE9F0EDEFE9F00FEFEAF004BEF4EF6A
:10D3DE00E9F0F2EFE9F00FEFEAF001C005F002C05C
:10D3EE0006F003C007F004C008F0051E061E071E57
:10D3FE00081E052A000E06220722082205C00BF081
:10D40E0006C00CF007C00DF008C00EF017EFEAF0E2
:10D41E0001C00BF002C00CF003C00DF004C00EF002
:10D42E000150021003100410D8A420EFEAF022EFEE
:10D43E00EAF02CEFEAF0000E016E000E026E000E06
:10D44E00036E000E046EBDEFEAF0960E0A6E36EF16
:10D45E00EAF00A2AD8900E320D320C320B32000E40
:10D46E000B14056E000E0C14066E000E0D14076ED6
:10D47E00FE0E0E14086E0550061007100810D8A4E4
:10D48E004BEFEAF04DEFEAF030EFEAF05BEFEAF047
:10D49E000A2A010E0B26000E0C220D220E22D89007
:10D4AE000E320D320C320B32000E0B14056E000EC6
:10D4BE000C14066E000E0D14076EFF0E0E14086E81
:10D4CE000550061007100810D8A470EFEAF072EF9E
:10D4DE00EAF04FEFEAF07AEFEAF00A06D8900B3650
:10D4EE000C360D360E360DBE7FEFEAF081EFEAF008
:10D4FE0089EFEAF0020E0A6087EFEAF089EFEAF0B0
:10D50E0074EFEAF00AB08EEFEAF090EFEAF091EFE6
:10D51E00EAF00D9ED8900A320AC005F0066A076A34
:10D52E00086A05C008F0076A066A056A05500B12FC
:10D53E0006500C1207500D1208500E120950D8B496
:10D54E00ABEFEAF0ADEFEAF0B5EFEAF004BEB4EF00
:10D55E00EAF0B2EFEAF0B5EFEAF00E8E0BC001F092
:10D56E000CC002F00DC003F00EC004F0120020EE4D
:10D57E0001F00E50D9260F50DA22DF50D8B4CAEF80
:10D58E00EAF0CCEFEAF0FDEFEAF00EC0D9FF0FC0E3
:10D59E00DAFFDF50106E1050016E026A20EE07F0B7
:10D5AE000E50D9260F50DA22DECF03F0DDCF04F075
:10D5BE00FCECDCF001C007F002C008F0000E0A6EB1
:10D5CE00640E096EF8ECDEF020EE07F00E50D92650
:10D5DE000F50DA22DECF11F0DDCF12F00750115CC2
:10D5EE00176E08501258186E20EFEBF00EC0D9FFD0
:10D5FE000FC0DAFFDF50106E1050016E026A20EE7F
:10D60E0007F00E50D9260F50DA22DECF03F0DDCF11
:10D61E0004F0FCECDCF001C007F002C008F0000ED4
:10D62E000A6E640E096EF8ECDEF007C017F008C043
:10D63E0018F020EE02F00E50D9260F50DA22DECF6F
:10D64E0010F0DDCF11F010C0D9FF11C0DAFF17C0F6
:10D65E00DFFF20EE01F00E50D9260F50DA22DF50F8
:10D66E00D8B43CEFEBF03EEFEBF073EFEBF020EEC7
:10D67E0004F00E50D9260F50DA22DECF10F0DDCF97
:10D68E0011F010C0D9FF11C0DAFF10EE04F00E50E9
:10D69E00E1260F50E222E6CF12F0E5CF13F012C0D2
:10D6AE00E1FF13C0E2FFE750146E10EE06F00E50CD
:10D6BE00E1260F50E222E750156E010E166E152A66
:10D6CE006BEFEBF0D8901636152E69EFEBF0165087
:10D6DE001410DF6EA7EFEBF020EE04F00E50D926FB
:10D6EE000F50DA22DECF10F0DDCF11F010C0D9FFCF
:10D6FE0011C0DAFF10EE04F00E50E1260F50E222B8
:10D70E00E6CF12F0E5CF13F012C0E1FF13C0E2FF37
:10D71E00E750146E10EE06F00E50E1260F50E22286
:10D72E00E750156E010E166E152AA0EFEBF0D8908D
:10D73E001636152E9EEFEBF01650FF0A1414DF6E00
:10D74E001200190E0001DD6F000EDE6F000EE26F8B
:10D75E00000EE16FEBECDCF023ECDDF04DECDDF0D8
:10D76E00CFECDCF0000E026E630E016E810E036EC6
:10D77E00020E046E780E056E020E066E01ECE3F0DC
:10D78E00010E0001E06F000E5F6EF7EFEBF0000E82
:10D79E000C6E020E0D6E68ECE6F0000E0001646F6A
:10D7AE00020E656F3A0E666F010E676F93ECFAF01C
:10D7BE008EA4E4EFEBF0E6EFEBF0CEEFEBF07CAE09
:10D7CE00EBEFEBF0EDEFEBF0F7EFEBF08EB6F2EFF9
:10D7DE00EBF0F4EFEBF0F7EFEBF0020E0001E06F81
:10D7EE000001E005D8B4FEEFEBF000EFECF0DFEF58
:10D7FE00EBF072EFECF0320E236E010E246E000E83
:10D80E00256E020E266E810E276E020E286E780E83
:10D81E00296E020E2A6EE10E2B6E000E2C6E19EC86
:10D82E00E9F0000E016E010E026EE10E036E000EA7
:10D83E00046E0001DD516BECDEF0E30E00018D6F26
:10D84E00000E8E6FB20E8F6F010E906F3A0E916FAB
:10D85E00010E926FDE0E936F000E946FF3ECF2F0EA
:10D86E0000018D51DF6F000E2A6E810E2B6E020E9F
:10D87E002C6E780E2D6E020E2E6EDF51A3ECE7F09D
:10D88E00AB0E016E000E026EDFC003F00001DD5123
:10D89E0067ECDDF0110E0001AA6F3C0EA96FCB0EE6
:10D8AE00E82EFED7A92FFCD7AA2FFAD7080E000113
:10D8BE00DF19D8B465EFECF067EFECF070EFECF039
:10D8CE00090EDF19D8A46EEFECF070EFECF072EFEA
:10D8DE00ECF0030EE06F020EE019D8B479EFECF025
:10D8EE007BEFECF002EFECF0030EE019D8A482EF20
:10D8FE00ECF084EFECF0A6EFECF0010E5F6EA6EF0D
:10D90E00ECF0DE0E326E000E336EAB0E346E000E89
:10D91E00356EE10E366E000E376E000E386E010E4D
:10D92E00396E5FC03AF0810E3B6E020E3C6E780E81
:10D93E003D6E020E3E6E66ECE4F0A4EFECF0030ECC
:10D94E00E019D8B4ADEFECF0AFEFECF088EFECF0FF
:10D95E0000EF00F02A50800B376E2A502A243E6EBC
:10D96E0029AEBCEFECF0BEEFECF0BFEFECF03E807A
:10D97E003E50D8B4C5EFECF0C7EFECF0DCEFECF0B6
:10D98E003E28D8A4CDEFECF0CFEFECF0D7EFECF0D3
:10D99E00000E276E000E286E000E296E000E2A6EE7
:10D9AE00298E000E2A6EE4EFECF0000E276E000EAC
:10D9BE00286E000E296E000E2A6E2E50800B371A1E
:10D9CE002E502E243F6E2DAEEFEFECF0F1EFECF07B
:10D9DE00F2EFECF03F803F50D8B4F8EFECF0FAEFF6
:10D9EE00ECF00FEFEDF03F28D8A400EFEDF002EFD2
:10D9FE00EDF00AEFEDF0000E2B6E000E2C6E000E09
:10DA0E002D6E000E2E6E2D8E000E2E6E17EFEDF07B
:10DA1E00000E2B6E000E2C6E000E2D6E000E2E6E56
:10DA2E002B502C102D102E10D8A420EFEDF022EF3D
:10DA3E00EDF03AEFEDF0000E276E000E286E000EA0
:10DA4E00296E000E2A6E800E29127F0E2A12375072
:10DA5E002A1227C027F028C028F029C029F02AC092
:10DA6E002AF07DEFEEF03E50D8A440EFEDF042EFFD
:10DA7E00EDF04CEFEDF0000E276E000E286E000E4E
:10DA8E00296E000E2A6E7DEFEEF03F503EC02FF055
:10DA9E00306A2F5E000E305A7F0E2F24386E000E25
:10DAAE003020396E27C033F028C034F029C035F04D
:10DABE002AC036F0000E276E000E286E000E296E5C
:10DACE00000E2A6E000E3A6E000E3B6E000E3C6E7D
:10DADE00000E3D6E000E3F6EADEFEDF03F50D8B430
:10DAEE007BEFEDF07DEFEDF094EFEDF0D890333667
:10DAFE00343635363636D8902736283629362A36F5
:10DB0E003DAE8CEFEDF08EEFEDF08FEFEDF0278068
:10DB1E00D8903A363B363C363D362B50335C2C5043
:10DB2E0034582D5035582E503658D8A0A1EFEDF060
:10DB3E00A3EFEDF0ACEFEDF03D8C2B50335E2C509F
:10DB4E00345A2D50355A2E50365A3F2A190E3F64EC
:10DB5E00B3EFEDF0B5EFEDF075EFEDF033503410AF
:10DB6E0035103610D8B4BEEFEDF0C0EFEDF0D8EFB3
:10DB7E00EDF03A80D8EFEDF0D890273628362936DA
:10DB8E002A363DAECDEFEDF0CFEFEDF0D0EFEDF06C
:10DB9E002780D8903A363B363C363D363806D8A0EC
:10DBAE00390629AEDDEFEDF0DFEFEDF0C3EFEDF06E
:10DBBE00000E3F6E3DAEE6EFEDF0E8EFEDF00CEF50
:10DBCE00EEF0FF0E3A142F6EFF0E3B14306EFF0E6A
:10DBDE003C14316E7F0E3D14326E2F5030103110CA
:10DBEE003210D8B4FDEFEDF0FFEFEDF003EFEEF0F5
:10DBFE00010E3F6E0CEFEEF027A008EFEEF00AEFED
:10DC0E00EEF00CEFEEF0FFEFEDF03F50D8B412EF68
:10DC1E00EEF014EFEEF038EFEEF0010E2726000EC8
:10DC2E00282229222A222AA01FEFEEF021EFEEF061
:10DC3E0038EFEEF027C02FF028C030F029C031F0B9
:10DC4E002AC032F032343232313230322F322FC0DB
:10DC5E0027F030C028F031C029F032C02AF0384AFF
:10DC6E00392A39BE43EFEEF0395008E13828D8A0F2
:10DC7E0043EFEEF045EFEEF050EFEEF0000E396EA2
:10DC8E003868000E276E000E286E000E296E000EEC
:10DC9E002A6E39BE5DEFEEF0395006E13804D8B089
:10DCAE005BEFEEF05DEFEEF06BEFEEF0000E396E27
:10DCBE00000E386E000E276E000E286E000E296EB6
:10DCCE00000E2A6E000E376E38C03EF03EA072EF88
:10DCDE00EEF074EFEEF077EFEEF0298E78EFEEF0D7
:10DCEE00299ED8903E302A6E2EEFEDF01200435052
:10DCFE00800B4C6E43504324526E42AE89EFEEF0D1
:10DD0E008BEFEEF08CEFEEF052805250D8B492EFD3
:10DD1E00EEF094EFEEF0A7EFEEF05228D8A49AEFC3
:10DD2E00EEF09CEFEEF0A4EFEEF0000E406E000E63
:10DD3E00416E000E426E000E436E428EAFEFEEF05D
:10DD4E00000E406E000E416E000E426E000E436ECF
:10DD5E004750800B4C1A47504724516E46AEBAEFCF
:10DD6E00EEF0BCEFEEF0BDEFEEF051805150D8B4B6
:10DD7E00C3EFEEF0C5EFEEF0D8EFEEF05128D8A4D9
:10DD8E00CBEFEEF0CDEFEEF0D5EFEEF0000E446EF1
:10DD9E00000E456E000E466E000E476E468EE0EF8C
:10DDAE00EEF0000E446E000E456E000E466E000E36
:10DDBE00476E5150D8B4E6EFEEF0E8EFEEF0F0EF2C
:10DDCE00EEF05250D8A4EEEFEEF0F0EFEEF0FAEFE8
:10DDDE00EEF0000E406E000E416E000E426E000E12
:10DDEE00436E92EFF0F046504002F3CF57F0F4CF6F
:10DDFE0058F057504D6E4E6A4F6A506A5850536ED7
:10DE0E00546A556A566A45504102F3CF57F0F4CF23
:10DE1E0058F057504D26000E4E224F225022585089
:10DE2E005326000E54225522562244504202F3CF5E
:10DE3E0057F0F4CF58F057504D26000E4E224F2279
:10DE4E00502258505326000E5422552256224FC0AF
:10DE5E0050F04EC04FF04DC04EF04D6A445041024E
:10DE6E00F3CF57F0F4CF58F057504D2658504E225E
:10DE7E00000E4F22000E502245504002F3CF57F0B5
:10DE8E00F4CF58F057504D2658504E22000E4F22C8
:10DE9E00000E50224FC050F04EC04FF04DC04EF00D
:10DEAE004D6A44504002F3CF57F0F4CF58F057501C
:10DEBE004D2658504E22000E4F22000E5022465034
:10DECE004102F3CF57F0F4CF58F057505326585025
:10DEDE005422000E5522000E562245504202F3CF18
:10DEEE0057F0F4CF58F05750532658505422000E86
:10DEFE005522000E562246504202F3CF57F0F4CF71
:10DF0E0058F05750486E5850496E4A6A4B6A4AC08C
:10DF1E004BF049C04AF048C049F0486A4850532671
:10DF2E00495054224A5055224B5056224DC048F06B
:10DF3E004EC049F04FC04AF050C04BF0190EADEF35
:10DF4E00EFF0D8904B324A3249324832E82EA8EFE1
:10DF5E00EFF048505326495054224A5055224B5008
:10DF6E0056224FC050F04EC04FF04DC04EF04D6A8D
:10DF7E00515052C048F0496A4826000E4922820E7E
:10DF8E004824576EFF0E4920586EE3EFEFF0D890FD
:10DF9E00533654365536563650AED8EFEFF0DAEFDC
:10DFAE00EFF0DBEFEFF05380D8904D364E364F3614
:10DFBE0050365706D8A0580655AEE8EFEFF0EAEF08
:10DFCE00EFF0CEEFEFF0000E516E50AEF1EFEFF03E
:10DFDE00F3EFEFF017EFF0F0FF0E4D14486EFF0E5B
:10DFEE004E14496EFF0E4F144A6E7F0E50144B6E38
:10DFFE00485049104A104B10D8B408EFF0F00AEF11
:10E00E00F0F00EEFF0F0010E516E17EFF0F053A09E
:10E01E0013EFF0F015EFF0F017EFF0F00AEFF0F06D
:10E02E005150D8B41DEFF0F01FEFF0F043EFF0F0C9
:10E03E00010E5326000E54225522562256A02AEFC8
:10E04E00F0F02CEFF0F043EFF0F053C048F054C076
:10E05E0049F055C04AF056C04BF04B344B324A3261
:10E06E004932483248C053F049C054F04AC055F0C6
:10E07E004BC056F0574A582A58BE4EEFF0F0585043
:10E08E0008E15728D8A04EEFF0F050EFF0F05AEF1D
:10E09E00F0F0000E536E000E546E800E556E7F0E15
:10E0AE00566E88EFF0F058BE67EFF0F0585006E16C
:10E0BE005704D8B065EFF0F067EFF0F073EFF0F0C3
:10E0CE00000E536E000E546E000E556E000E566E00
:10E0DE00000E4C6E88EFF0F057C052F0FF0E531644
:10E0EE00FF0E54167F0E5516000E561652A082EFD6
:10E0FE00F0F084EFF0F085EFF0F0558ED8905230BE
:10E10E00566E4C50561253C040F054C041F055C09C
:10E11E0042F056C043F012001250800B1B6E12508C
:10E12E0012241D6E11AE9EEFF0F0A0EFF0F0A1EFF5
:10E13E00F0F01D801D50D8B4A7EFF0F0A9EFF0F06D
:10E14E00BEEFF0F01D28D8A4AFEFF0F0B1EFF0F075
:10E15E00B9EFF0F0000E0F6E000E106E000E116E85
:10E16E00000E126E118E000E126EC6EFF0F0000E43
:10E17E000F6E000E106E000E116E000E126E165007
:10E18E00800B1C6E1B501C18D8B4D0EFF0F0D2EFE1
:10E19E00F0F0D3EFF0F01B8C165016241C6E15AE5B
:10E1AE00DBEFF0F0DDEFF0F0DEEFF0F01C801C5056
:10E1BE00D8B4E4EFF0F0E6EFF0F0FBEFF0F01C284F
:10E1CE00D8A4ECEFF0F0EEEFF0F0F6EFF0F0000E7A
:10E1DE00136E000E146E000E156E000E166E158E5A
:10E1EE00000E166E03EFF1F0000E136E000E146E9D
:10E1FE00000E156E000E166E1D501C5CD8B00AEF88
:10E20E00F1F00CEFF1F033EFF1F01BAC11EFF1F098
:10E21E0013EFF1F015EFF1F0800E1B1A1DC01EF07A
:10E22E001CC01DF01EC01CF00FC01EF013C00FF05E
:10E23E001EC013F010C01EF014C010F01EC014F05B
:10E24E0011C01EF015C011F01EC015F012C01EF048
:10E25E0016C012F01EC016F0000E1E6E1D501CC011
:10E26E0017F0186A175E000E185A18BE48EFF1F034
:10E27E00185009E11A0E175CD8A048EFF1F04AEFDA
:10E28E00F1F081EFF1F00F50101011101210D8A410
:10E29E0053EFF1F056EFF1F0010E57EFF1F0000EE3
:10E2AE001E6E000E0F6E000E106E000E116E000E22
:10E2BE00126E1CC01DF08AEFF1F01EA069EFF1F096
:10E2CE006BEFF1F071EFF1F0D8901E3001091E6E78
:10E2DE0073EFF1F0D8901E320FA078EFF1F07AEFD5
:10E2EE00F1F07BEFF1F01E8E123412321132103239
:10E2FE000F321D2A1C501D5CD8A088EFF1F08AEF5A
:10E30E00F1F064EFF1F01BBC8FEFF1F091EFF1F053
:10E31E00D1EFF1F01D50D8A497EFF1F099EFF1F095
:10E32E00A3EFF1F0000E0F6E000E106E000E116EC8
:10E33E00000E126EF2EFF2F013500F261450102250
:10E34E00155011221650122212A0B0EFF1F0B2EFBA
:10E35E00F1F05EEFF2F01EA0B7EFF1F0B9EFF1F0D1
:10E36E00BFEFF1F0D8901E3001091E6EC1EFF1F033
:10E37E00D8901E320FA0C6EFF1F0C8EFF1F0C9EF42
:10E38E00F1F01E8E12341232113210320F321D2A5B
:10E39E005EEFF2F013500F5C1450105815501158D8
:10E3AE001250800A176E1650800A1758D8B0E2EF36
:10E3BE00F1F0E4EFF1F00FEFF2F00F50135C176E87
:10E3CE0010501458186E11501558196E12501658C8
:10E3DE001A6EFF0E17240F6EFF0E1820106EFF0E12
:10E3EE001920116EFF0E1A20126E800E1B1A1E6C53
:10E3FE001E50D8A405EFF2F007EFF2F017EFF2F08F
:10E40E00010E0F26000E10221122122217EFF2F02B
:10E41E0013500F5E1450105A1550115A1650125AAE
:10E42E000F50101011101210D8A420EFF2F022EF9E
:10E43E00F2F057EFF2F01E50D8A428EFF2F02AEFC8
:10E44E00F2F057EFF2F0000E0F6E000E106E000E8F
:10E45E00116E000E126EF2EFF2F0D8900F361036EB
:10E46E00113612361EAE3EEFF2F040EFF2F041EFF3
:10E47E00F2F00F801EA046EFF2F048EFF2F04CEFF4
:10E48E00F2F0D8801E364EEFF2F0D8901E361D50A8
:10E49E00D8B454EFF2F056EFF2F057EFF2F01D064B
:10E4AE0011AE5CEFF2F05EEFF2F034EFF2F0000E30
:10E4BE001C6E1EAE65EFF2F067EFF2F07FEFF2F03A
:10E4CE001EC017F07F0E1716D8B470EFF2F072EF71
:10E4DE00F2F076EFF2F0010E1C6E7FEFF2F00FA06D
:10E4EE007BEFF2F07DEFF2F07FEFF2F072EFF2F0F1
:10E4FE001C50D8B485EFF2F087EFF2F0B2EFF2F0E5
:10E50E00010E0F26000E10221122122212A092EFDF
:10E51E00F2F094EFF2F0B2EFF2F00FC017F010C07D
:10E52E0018F011C019F012C01AF01A341A3219323A
:10E53E001832173217C00FF018C010F019C011F0B2
:10E54E001AC012F01D28D8B4AFEFF2F0B1EFF2F00E
:10E55E00B2EFF2F01D2A1D28D8B4B8EFF2F0BAEFE0
:10E56E00F2F0C2EFF2F01D50D8A4C0EFF2F0C2EFFD
:10E57E00F2F0D4EFF2F0000E0F6E000E106E000EE1
:10E58E00116E000E126E1D50D8A4D0EFF2F0D2EF25
:10E59E00F2F0D4EFF2F0000E1B6E1DA0D9EFF2F0E8
:10E5AE00DBEFF2F0DEEFF2F0118EDFEFF2F0119E04
:10E5BE00D8901D30126E1BAEE7EFF2F0E9EFF2F0DD
:10E5CE00EAEFF2F0128E0FC00FF010C010F011C073
:10E5DE0011F012C012F01200000E026E010E016E4A
:10E5EE00000E046E010E036E000E066E010E056E19
:10E5FE0094ECDEF0110E0001966F3C0E956FCB0E73
:10E60E00E82EFED7952FFCD7962FFAD743ECDEF0E7
:10E61E008DC0D9FF8EC0DAFF05C0DEFF06C0DDFF5C
:10E62E00110E0001966F3C0E956FCB0EE82EFED7A5
:10E63E00952FFCD7962FFAD71BECDEF0000120EEBB
:10E64E0002F08D51D9268E51DA2205C0DEFF06C0AA
:10E65E00DDFF110E0001966F3C0E956FCB0EE82E6E
:10E66E00FED7952FFCD7962FFAD7CBECDDF0000115
:10E67E0020EE04F08D51D9268E51DA2205C0DEFF30
:10E68E0006C0DDFF110E0001966F3C0E956FCB0E8E
:10E69E00E82EFED7952FFCD7962FFAD7000E026ED6
:10E6AE00000E016E000E046E000E036E000E066E5E
:10E6BE00000E056E94ECDEF08DC064F08EC065F039
:10E6CE008FC066F090C067F090ECF6F0000E00017F
:10E6DE009E6F010E9D6F010EA16F000EA06F010EB9
:10E6EE009F6F000EA86F000EA36F000EA46F000E9A
:10E6FE00A26F6AEFF6F0000EA56F000EA56F8FC029
:10E70E00D9FF90C0DAFFA551020DF3CF97F0F4CFE9
:10E71E0098F097519125E16E98519221E26EE6CFD5
:10E72E0099F0E5CF9AF09D51995F9E519A5BDE501C
:10E73E00995DDE509A59D8B0A7EFF3F0A9EFF3F038
:10E74E00B0EFF4F0A551020DF3CF95F0F4CF96F0A3
:10E75E0095519125D96E96519221DA6EDECF97F0B2
:10E76E00DDCF98F09D5197279E5198238FC0D9FFEA
:10E77E0090C0DAFF9751DE5C9851DE58D8B0CAEFE0
:10E78E00F3F0CCEFF3F0B0EFF4F0A529A36F000E89
:10E79E00A66F000EA66F080EA665D8EFF3F0DAEF9F
:10E7AE00F3F0DCEFF3F0B2EFF4F020EE02F08F5165
:10E7BE00D9269051DA22A651020D91C097F092C03F
:10E7CE0098F0F3509727F45098231E0E9725E16E7C
:10E7DE00000E9821E26EE6CF99F0E5CF9AF0A151A6
:10E7EE00995F000E9A5BDE50995DDE509A59D8B053
:10E7FE0003EFF4F005EFF4F0A4EFF4F0A651020DE0
:10E80E0091C095F092C096F0F3509527F450962350
:10E81E001E0E9525D96E000E9621DA6EDECF97F07C
:10E82E00DDCF98F0A151996F9A6B97519927985116
:10E83E009A2320EE02F08F51D9269051DA22995167
:10E84E00DE5C9A51DE58D8B02FEFF4F031EFF4F0D1
:10E85E00A4EFF4F0A629A46F000EA76F000EA76F09
:10E86E00080EA7653DEFF4F03FEFF4F041EFF4F042
:10E87E00A5EFF4F020EE04F08F51D9269051DA2254
:10E88E00A751020D91C097F092C098F0F3509727C0
:10E89E00F45098233C0E9725E16E000E9821E26EFF
:10E8AE00E6CF99F0E5CF9AF09F51995FA0519A5B10
:10E8BE00DE50995DDE509A59D8B068EFF4F06AEFE9
:10E8CE00F4F097EFF4F0A751020D91C095F092C0BD
:10E8DE0096F0F3509527F45096233C0E9525D96E5D
:10E8EE00000E9621DA6EDECF97F0DDCF98F09F51B5
:10E8FE009727A051982320EE04F08F51D9269051DE
:10E90E00DA229751DE5C9851DE58D8B091EFF4F0D0
:10E91E0093EFF4F097EFF4F0A729A26F99EFF4F0CC
:10E92E009F4BA02BA72B080EA765A0EFF4F0A2EF2C
:10E93E00F4F041EFF4F0A5EFF4F0A12BA62B080EA6
:10E94E00A665ACEFF4F0AEEFF4F0DCEFF3F0B2EF5F
:10E95E00F4F09D4B9E2BA52B080EA565B9EFF4F098
:10E96E00BBEFF4F086EFF3F0A451A319D8A4C2EFD5
:10E97E00F4F0C4EFF4F0D1EFF4F0A251A419D8A43E
:10E98E00CBEFF4F0CDEFF4F0D1EFF4F0A3C0A8F09C
:10E99E00E5EFF4F0A251A419D8A4D8EFF4F0DAEF11
:10E9AE00F4F0CDEFF4F0A451A319D8B4E1EFF4F0E4
:10E9BE00E3EFF4F0CDEFF4F0A4C0A8F0A805D8B4BE
:10E9CE00EBEFF4F0EDEFF4F0F6EFF4F0060EA8191D
:10E9DE00D8A4F4EFF4F0F6EFF4F095EFF5F0000EA6
:10E9EE00026E010E016E000E046E000E036E000E1E
:10E9FE00066E000E056E94ECDEF043ECDEF08DC07C
:10EA0E00D9FF8EC0DAFF05C0DEFF06C0DDFF110E96
:10EA1E000001966F3C0E956FCB0EE82EFED7952F0C
:10EA2E00FCD7962FFAD7000E026E000E016E000E66
:10EA3E00046E010E036E000E066E000E056E94EC53
:10EA4E00DEF01BECDEF0000120EE02F08D51D92637
:10EA5E008E51DA2205C0DEFF06C0DDFF110E000169
:10EA6E00966F3C0E956FCB0EE82EFED7952FFCD7EA
:10EA7E00962FFAD7000E026E000E016E000E046E77
:10EA8E00000E036E000E066E010E056E94ECDEF0A7
:10EA9E00CBECDDF0000120EE04F08D51D9268E5125
:10EAAE00DA2205C0DEFF06C0DDFF110E0001966FF3
:10EABE003C0E956FCB0EE82EFED7952FFCD7962FDA
:10EACE00FAD7000E026E000E016E000E046E000EDE
:10EADE00036E000E066E000E056E94ECDEF08DC019
:10EAEE0064F08EC065F08FC066F090C067F090EC59
:10EAFE00F6F08FC0D9FF90C0DAFFDE50DE10D8A43A
:10EB0E008BEFF5F08DEFF5F092EFF5F0060E0001BC
:10EB1E00A86F95EFF5F0010E0001A86F090EA81968
:10EB2E00D8A49CEFF5F09EEFF5F06AEFF6F0000E2C
:10EB3E00026E010E016E000E046E010E036E000ECB
:10EB4E00066E010E056E94ECDEF0110E0001966F4E
:10EB5E003C0E956FCB0EE82EFED7952FFCD7962F39
:10EB6E00FAD743ECDEF08DC0D9FF8EC0DAFF05C0B8
:10EB7E00DEFF06C0DDFF110E0001966F3C0E956F95
:10EB8E00CB0EE82EFED7952FFCD7962FFAD71BEC7F
:10EB9E00DEF0000120EE02F08D51D9268E51DA22E0
:10EBAE0005C0DEFF06C0DDFF110E0001966F3C0EA4
:10EBBE00956FCB0EE82EFED7952FFCD7962FFAD752
:10EBCE00CBECDDF0000120EE04F08D51D9268E51F4
:10EBDE00DA2205C0DEFF06C0DDFF110E0001966FC2
:10EBEE003C0E956FCB0EE82EFED7952FFCD7962FA9
:10EBFE00FAD7000E026E000E016E000E046E000EAD
:10EC0E00036E000E066E000E056E94ECDEF08DC0E7
:10EC1E0064F08EC065F08FC066F090C067F090EC27
:10EC2E00F6F08FC0D9FF90C0DAFF010EDB5007E17E
:10EC3E00150EDE5CD8B026EFF6F028EFF6F052EFA8
:10EC4E00F6F08FC0D9FF90C0DAFF010EDB5009E15C
:10EC5E000D0EDE5CD8A036EFF6F038EFF6F052EF80
:10EC6E00F6F0000120EE04F08F51D9269051DA22F1
:10EC7E00E80EDE5C030EDE58D8B048EFF6F04AEF31
:10EC8E00F6F04EEFF6F0090EA86F6AEFF6F0040EEE
:10EC9E00A86F6AEFF6F08FC0D9FF90C0DAFF010EB1
:10ECAE00DB5007E1080EDE5CD8B060EFF6F062EFE5
:10ECBE00F6F067EFF6F0050E0001A86F6AEFF6F0BA
:10ECCE00080E0001A86FA851D8B470EFF6F072EFDD
:10ECDE00F6F082EFF3F08096110E0001966F3C0E67
:10ECEE00956FCB0EE82EFED7952FFCD7962FFAD721
:10ECFE0093C0D9FF94C0DAFFDF500001956F9529BC
:10ED0E0093C0D9FF94C0DAFFDF6EA8C08DF08E6B72
:10ED1E001200000120EE02F06451D9266551DA226C
:10ED2E0064C0E1FF65C0E2FFDE50E61807E1DE5089
:10ED3E00E618D8A4A5EFF6F0A7EFF6F0F3EFF6F08D
:10ED4E0020EE04F06451D9266551DA2264C0E1FF49
:10ED5E0065C0E2FFDE50E61807E1DE50E618D8A4E3
:10ED6E00BBEFF6F0BDEFF6F0F3EFF6F0000E806FAE
:10ED7E0064C0D9FF65C0DAFFDECF68F0DDCF69F081
:10ED8E0068C001F069C002F0036A046A000EE4EC88
:10ED9E00E9F001C089F002C08AF003C08BF004C014
:10EDAE008CF064C0D9FF65C0DAFFDECF68F0DDCF2E
:10EDBE0069F068C001F069C002F0036A046A000ECF
:10EDCE00E4ECE9F001C085F002C086F003C087F0E4
:10EDDE0004C088F0B9EFF9F020EE02F06451D926A4
:10EDEE006551DA2264C0E1FF65C0E2FFDE50E65CE9
:10EDFE00DE50E658D8A006EFF7F008EFF7F079EFFF
:10EE0E00F7F020EE04F06451D9266551DA2264C081
:10EE1E00E1FF65C0E2FFDE50E65CDE50E658D8A0AA
:10EE2E001BEFF7F01DEFF7F079EFF7F0010E806FA3
:10EE3E0064C0D9FF65C0DAFFDECF68F0DDCF69F0C0
:10EE4E0068C001F069C002F0036A046A000EE4ECC7
:10EE5E00E9F001C089F002C08AF003C08BF004C053
:10EE6E008CF0000120EE04F06451D9266551DA22AF
:10EE7E0010EE02F06451E1266551E222DE50E65CAE
:10EE8E00DE50E658D8A04EEFF7F050EFF7F05CEFFB
:10EE9E00F7F020EE04F06451D9266551DA22DECF68
:10EEAE0076F0DDCF77F066EFF7F020EE02F06451EA
:10EEBE00D9266551DA22DECF76F0DDCF77F076C037
:10EECE0001F077C002F0036A046A000EE4ECE9F088
:10EEDE0001C085F002C086F003C087F004C088F040
:10EEEE00B9EFF9F064C0D9FF65C0DAFF10EE02F099
:10EEFE006451E1266551E222DE50E65CDE50E658B2
:10EF0E00D8A08CEFF7F08EEFF7F0FFEFF7F020EED2
:10EF1E0004F06451D9266551DA2210EE02F06451E4
:10EF2E00E1266551E222DE50E65CDE50E658D8A0BE
:10EF3E00A3EFF7F0A5EFF7F0FFEFF7F0020E806FFB
:10EF4E0020EE02F06451D9266551DA22DECF68F048
:10EF5E00DDCF69F068C001F069C002F0036A046A8F
:10EF6E00000EE4ECE9F001C089F002C08AF003C0A3
:10EF7E008BF004C08CF0000120EE04F06451D92611
:10EF8E006551DA2264C0E1FF65C0E2FFDE50E65C47
:10EF9E00DE50E658D8A0D6EFF7F0D8EFF7F0E4EF52
:10EFAE00F7F020EE04F06451D9266551DA22DECF57
:10EFBE0078F0DDCF79F0ECEFF7F064C0D9FF65C0E3
:10EFCE00DAFFDECF78F0DDCF79F078C001F079C0CE
:10EFDE0002F0036A046A000EE4ECE9F001C085F069
:10EFEE0002C086F003C087F004C088F0B9EFF9F0D4
:10EFFE00030E806F20EE04F06451D9266551DA229B
:10F00E00DECF68F0DDCF69F068C001F069C002F0B4
:10F01E00036A046A000EE4ECE9F001C089F002C054
:10F02E008AF003C08BF004C08CF0000120EE02F0D9
:10F03E006451D9266551DA2264C0E1FF65C0E2FF52
:10F04E00DE50E65CDE50E658D8A030EFF8F032EF36
:10F05E00F8F03EEFF8F020EE02F06451D92665513B
:10F06E00DA22DECF7AF0DDCF7BF046EFF8F064C027
:10F07E00D9FF65C0DAFFDECF7AF0DDCF7BF07AC044
:10F08E0001F07BC002F0036A046A000EE4ECE9F0C2
:10F09E0001C085F002C086F003C087F004C088F07E
:10F0AE00B9EFF9F0000E816F000E826F000E836FC4
:10F0BE00000E846FD7EFF9F085C023F086C024F0E0
:10F0CE0087C025F088C026F089C01FF08AC020F0C6
:10F0DE008BC021F08CC022F0A8ECDDF01FC02BF00D
:10F0EE0020C02CF021C02DF022C02EF0000120EE09
:10F0FE0004F06451D9266551DA22DECF68F0DDCFF7
:10F10E0069F020EE02F06451D9266551DA22DECF85
:10F11E006AF0DDCF6BF068516A5F69516B5B6AC054
:10F12E0001F06BC002F0036A046A000EE4ECE9F031
:10F13E0001C027F002C028F003C029F004C02AF055
:10F14E00B1ECECF027C040F028C041F029C042F0ED
:10F15E002AC043F0000E446E000E456E700E466ED1
:10F16E00420E476E7EECEEF040C081F041C082F060
:10F17E0042C083F043C084F0D7EFF9F085C023F08E
:10F18E0086C024F087C025F088C026F089C01FF005
:10F19E008AC020F08BC021F08CC022F0A8ECDDF0EC
:10F1AE001FC02BF020C02CF021C02DF022C02EF05D
:10F1BE0064C0D9FF65C0DAFFDECF68F0DDCF69F03D
:10F1CE00000120EE04F06451D9266551DA22DECF1B
:10F1DE006AF0DDCF6BF068516A5F69516B5B6AC094
:10F1EE0001F06BC002F0036A046A000EE4ECE9F071
:10F1FE0001C027F002C028F003C029F004C02AF095
:10F20E00B1ECECF027C07CF028C07DF029C07EF078
:10F21E002AC07FF0000E136E000E146E000E156ED7
:10F22E00400E166E7CC00FF07DC010F07EC011F047
:10F23E007FC012F093ECF0F00FC040F010C041F020
:10F24E0011C042F012C043F0000E446E000E456E27
:10F25E00700E466E420E476E7EECEEF040C081F0B0
:10F26E0041C082F042C083F043C084F0D7EFF9F082
:10F27E0085C023F086C024F087C025F088C026F014
:10F28E0089C01FF08AC020F08BC021F08CC022F004
:10F29E00A8ECDDF01FC02BF020C02CF021C02DF00B
:10F2AE0022C02EF0000120EE02F06451D9266551E5
:10F2BE00DA22DECF68F0DDCF69F064C0D9FF65C019
:10F2CE00DAFFDECF6AF0DDCF6BF068516A5F69510D
:10F2DE006B5B6AC001F06BC002F0036A046A000E39
:10F2EE00E4ECE9F001C027F002C028F003C029F0D9
:10F2FE0004C02AF0B1ECECF027C07CF028C07DF001
:10F30E0029C07EF02AC07FF0000E136E000E146E20
:10F31E00800E156E400E166E7CC00FF07DC010F084
:10F32E007EC011F07FC012F093ECF0F00FC040F0F1
:10F33E0010C041F011C042F012C043F0000E446EF6
:10F34E00000E456E700E466E420E476E7EECEEF06F
:10F35E0040C081F041C082F042C083F043C084F0CF
:10F36E00D7EFF9F000018051686F696B6951000A9F
:10F37E00D8B4C4EFF9F0D7EFF9F06851000AD8B459
:10F38E0059EFF8F0010AD8B463EFF8F0030AD8B4D5
:10F39E00C5EFF8F0010AD8B43FEFF9F0D7EFF9F066
:10F3AE00000184BFDFEFF9F0DDEFF9F0F9EFF9F0CE
:10F3BE0081C00FF082C010F083C011F084C012F033
:10F3CE00000E136E000E146EB40E156E430E166EF6
:10F3DE0093ECF0F00FC081F010C082F011C083F0FA
:10F3EE0012C084F000018051D8B400EFFAF002EFA1
:10F3FE00FAF030EFFAF085C023F086C024F087C013
:10F40E0025F088C026F089C01FF08AC020F08BC07E
:10F41E0021F08CC022F0A8ECDDF01FC027F020C038
:10F42E0028F021C029F022C02AF089C02BF08AC012
:10F43E002CF08BC02DF08CC02EF0B1ECECF027C070
:10F44E0072F028C073F029C074F02AC075F038EF3E
:10F45E00FAF0000E726F000E736F000E746F000ED6
:10F46E00756F000E446E000E456EC80E466E420E4F
:10F47E00476E72C040F073C041F074C042F075C068
:10F48E0043F07EECEEF040C059F041C05AF042C05D
:10F49E005BF043C05CF0E4ECE5F059C070F05AC08C
:10F4AE0071F089C06CF08AC06DF08BC06EF08CC0AC
:10F4BE006FF081C059F082C05AF083C05BF084C0F7
:10F4CE005CF0E4ECE5F066C0D9FF67C0DAFF59C026
:10F4DE00DEFF5AC0DDFF000120EE02F06651D92694
:10F4EE006751DA2270C0DEFF71C0DDFF6CC059F0CB
:10F4FE006DC05AF06EC05BF06FC05CF0E4ECE5F0EE
:10F50E00000120EE04F06651D9266751DA2259C067
:10F51E00DEFF5AC0DDFF1200000E0001916F915107
:10F52E00020D64C068F065C069F0F3506827F450AE
:10F53E0069231E0E6825D96E000E6921DA6E91516F
:10F54E00020DF3CF6CF0F4CF6DF06C516425E16ECB
:10F55E006D516521E26EDE50E61807E1DE50E618C9
:10F56E00D8A4BCEFFAF0BEEFFAF02DEFFBF09151FC
:10F57E00020D64C068F065C069F0F3506827F4505E
:10F58E0069233C0E6825D96E000E6921DA6E915101
:10F59E00020DF3CF6CF0F4CF6DF06C516425E16E7B
:10F5AE006D516521E26EDE50E61807E1DE50E61879
:10F5BE00D8A4E4EFFAF0E6EFFAF02DEFFBF0000E30
:10F5CE00846F9151020DF3CF68F0F4CF69F068515A
:10F5DE006425D96E69516521DA6EDECF6AF0DDCF12
:10F5EE006BF06AC001F06BC002F0036A046A000E91
:10F5FE00E4ECE9F001C08DF002C08EF003C08FF094
:10F60E0004C090F000019151020DF3CF68F0F4CFD9
:10F61E0069F068516425D96E69516521DA6EDECFC5
:10F62E006AF0DDCF6BF06AC001F06BC002F0036AC6
:10F63E00046A000EE4ECE9F001C089F002C08AF021
:10F64E0003C08BF004C08CF001EFFFF09151020D5E
:10F65E0064C068F065C069F0F3506827F450692300
:10F66E001E0E6825D96E000E6921DA6E9151020DBB
:10F67E00F3CF6CF0F4CF6DF06C516425E16E6D51EB
:10F68E006521E26EDE50E65CDE50E658D8A052EF01
:10F69E00FBF054EFFBF007EFFCF09151020D64C04C
:10F6AE0068F065C069F0F3506827F45069233C0E8A
:10F6BE006825D96E000E6921DA6E9151020DF3CFD5
:10F6CE006CF0F4CF6DF06C516425E16E6D516521D7
:10F6DE00E26EDE50E65CDE50E658D8A079EFFBF025
:10F6EE007BEFFBF007EFFCF0010E846F9151020DE2
:10F6FE00F3CF68F0F4CF69F068516425D96E695183
:10F70E006521DA6EDECF6AF0DDCF6BF06AC001F0F4
:10F71E006BC002F0036A046A000EE4ECE9F001C06B
:10F72E008DF002C08EF003C08FF004C090F0000187
:10F73E009151020D64C068F065C069F0F3506827FE
:10F74E00F45069233C0E6825D96E000E6921DA6EDD
:10F75E009151020D64C06CF065C06DF0F3506C27D2
:10F76E00F4506D231E0E6C25E16E000E6D21E26EBF
:10F77E00DE50E65CDE50E658D8A0C8EFFBF0CAEFCC
:10F78E00FBF0DCEFFBF09151020D64C068F065C038
:10F79E0069F0F3506827F45069233C0E68257A6FA0
:10F7AE00000E69217B6FECEFFBF09151020D64C0EE
:10F7BE0068F065C069F0F3506827F45069231E0E97
:10F7CE0068257A6F000E69217B6F7AC0D9FF7BC0E6
:10F7DE00DAFFDECF68F0DDCF69F068C001F069C0F6
:10F7EE0002F0036A046A000EE4ECE9F001C089F04D
:10F7FE0002C08AF003C08BF004C08CF001EFFFF062
:10F80E009151020DF3CF68F0F4CF69F06851642581
:10F81E00D96E69516521DA6E9151020D64C06CF09A
:10F82E0065C06DF0F3506C27F4506D231E0E6C25E1
:10F83E00E16E000E6D21E26EDE50E65CDE50E658A3
:10F84E00D8A02CEFFCF02EEFFCF0E1EFFCF0915184
:10F85E00020D64C068F065C069F0F3506827F4507B
:10F86E0069233C0E6825D96E000E6921DA6E91511E
:10F87E00020D64C06CF065C06DF0F3506C27F4504F
:10F88E006D231E0E6C25E16E000E6D21E26EDE50B4
:10F89E00E65CDE50E658D8A057EFFCF059EFFCF0CE
:10F8AE00E1EFFCF0020E846F9151020D64C068F01E
:10F8BE0065C069F0F3506827F45069231E0E682561
:10F8CE00D96E000E6921DA6EDECF6AF0DDCF6BF0F5
:10F8DE006AC001F06BC002F0036A046A000EE4EC29
:10F8EE00E9F001C08DF002C08EF003C08FF004C0AD
:10F8FE0090F000019151020D64C068F065C069F08E
:10F90E00F3506827F45069233C0E6825D96E000E1B
:10F91E006921DA6E9151020DF3CF6CF0F4CF6DF0D8
:10F92E006C516425E16E6D516521E26EDE50E65C30
:10F93E00DE50E658D8A0A6EFFCF0A8EFFCF0BAEF28
:10F94E00FCF09151020D64C068F065C069F0F3508F
:10F95E006827F45069233C0E68257C6F000E6921E0
:10F96E007D6FC6EFFCF09151020DF3CF68F0F4CF2E
:10F97E0069F0685164257C6F695165217D6F7CC08B
:10F98E00D9FF7DC0DAFFDECF68F0DDCF69F068C049
:10F99E0001F069C002F0036A046A000EE4ECE9F0BB
:10F9AE0001C089F002C08AF003C08BF004C08CF055
:10F9BE0001EFFFF0030E846F9151020D64C068F0E9
:10F9CE0065C069F0F3506827F45069233C0E682532
:10F9DE00D96E000E6921DA6EDECF6AF0DDCF6BF0E4
:10F9EE006AC001F06BC002F0036A046A000EE4EC18
:10F9FE00E9F001C08DF002C08EF003C08FF004C09C
:10FA0E0090F000019151020D64C068F065C069F07C
:10FA1E00F3506827F45069231E0E6825D96E000E28
:10FA2E006921DA6E9151020DF3CF6CF0F4CF6DF0C7
:10FA3E006C516425E16E6D516521E26EDE50E65C1F
:10FA4E00DE50E658D8A02EEFFDF030EFFDF042EF7D
:10FA5E00FDF09151020D64C068F065C069F0F3507D
:10FA6E006827F45069231E0E68257E6F000E6921EB
:10FA7E007F6F4EEFFDF09151020DF3CF68F0F4CF92
:10FA8E0069F0685164257E6F695165217F6F7EC074
:10FA9E00D9FF7FC0DAFFDECF68F0DDCF69F068C036
:10FAAE0001F069C002F0036A046A000EE4ECE9F0AA
:10FABE0001C089F002C08AF003C08BF004C08CF044
:10FACE0001EFFFF0000E856F000E866F000E876F40
:10FADE00000E886F1FEFFFF089C023F08AC024F05C
:10FAEE008BC025F08CC026F08DC01FF08EC020F08C
:10FAFE008FC021F090C022F0A8ECDDF01FC02BF0DB
:10FB0E0020C02CF021C02DF022C02EF0000191510A
:10FB1E00020D64C068F065C069F0F3506827F450B8
:10FB2E0069233C0E6825D96E000E6921DA6EDECF90
:10FB3E006AF0DDCF6BF09151020D64C06CF065C0C0
:10FB4E006DF0F3506C27F4506D231E0E6C25D96E9C
:10FB5E00000E6D21DA6EDECF6EF0DDCF6FF06A51E2
:10FB6E006E5F6B516F5B6EC001F06FC002F0036A87
:10FB7E00046A000EE4ECE9F001C027F002C028F0A0
:10FB8E0003C029F004C02AF0B1ECECF027C040F01D
:10FB9E0028C041F029C042F02AC043F0000E446E46
:10FBAE00000E456E700E466E420E476E7EECEEF007
:10FBBE0040C085F041C086F042C087F043C088F057
:10FBCE001FEFFFF089C023F08AC024F08BC025F010
:10FBDE008CC026F08DC01FF08EC020F08FC021F09B
:10FBEE0090C022F0A8ECDDF01FC02BF020C02CF04E
:10FBFE0021C02DF022C02EF000019151020DF3CF45
:10FC0E0068F0F4CF69F068516425D96E69516521A9
:10FC1E00DA6EDECF6AF0DDCF6BF09151020D64C06B
:10FC2E006CF065C06DF0F3506C27F4506D233C0EF4
:10FC3E006C25D96E000E6D21DA6EDECF6EF0DDCF43
:10FC4E006FF06A516E5F6B516F5B6EC001F06FC0EB
:10FC5E0002F0036A046A000EE4ECE9F001C027F03A
:10FC6E0002C028F003C029F004C02AF0B1ECECF079
:10FC7E0027C080F028C081F029C082F02AC083F00E
:10FC8E00000E136E000E146E000E156E400E166EE4
:10FC9E0080C00FF081C010F082C011F083C012F04E
:10FCAE0093ECF0F00FC040F010C041F011C042F0E4
:10FCBE0012C043F0000E446E000E456E700E466E7E
:10FCCE00420E476E7EECEEF040C085F041C086F0ED
:10FCDE0042C087F043C088F01FEFFFF089C023F0C9
:10FCEE008AC024F08BC025F08CC026F08DC01FF08A
:10FCFE008EC020F08FC021F090C022F0A8ECDDF075
:10FD0E001FC02BF020C02CF021C02DF022C02EF0F1
:10FD1E0000019151020D64C068F065C069F0F350A6
:10FD2E006827F45069231E0E6825D96E000E6921CE
:10FD3E00DA6EDECF6AF0DDCF6BF09151020DF3CFAC
:10FD4E006CF0F4CF6DF06C516425D96E6D51652158
:10FD5E00DA6EDECF6EF0DDCF6FF06A516E5F6B51F3
:10FD6E006F5B6EC001F06FC002F0036A046A000E92
:10FD7E00E4ECE9F001C027F002C028F003C029F03E
:10FD8E0004C02AF0B1ECECF027C080F028C081F05E
:10FD9E0029C082F02AC083F0000E136E000E146E7E
:10FDAE00800E156E400E166E80C00FF081C010F0E2
:10FDBE0082C011F083C012F093ECF0F00FC040F04F
:10FDCE0010C041F011C042F012C043F0000E446E5C
:10FDDE00000E456E700E466E420E476E7EECEEF0D5
:10FDEE0040C085F041C086F042C087F043C088F025
:10FDFE001FEFFFF000018451686F696B6951000AB3
:10FE0E00D8B40CEFFFF01FEFFFF06851000AD8B422
:10FE1E0069EFFDF0010AD8B473EFFDF0030AD8B410
:10FE2E00E9EFFDF0010AD8B475EFFEF01FEFFFF019
:10FE3E00000188BF27EFFFF025EFFFF041EFFFF045
:10FE4E0085C00FF086C010F087C011F088C012F088
:10FE5E00000E136E000E146EB40E156E430E166E5B
:10FE6E0093ECF0F00FC085F010C086F011C087F053
:10FE7E0012C088F000018451D8B448EFFFF04AEF69
:10FE8E00FFF078EFFFF089C023F08AC024F08BC01A
:10FE9E0025F08CC026F08DC01FF08EC020F08FC0D4
:10FEAE0021F090C022F0A8ECDDF01FC027F020C09A
:10FEBE0028F021C029F022C02AF08DC02BF08EC070
:10FECE002CF08FC02DF090C02EF0B1ECECF027C0CE
:10FEDE0076F028C077F029C078F02AC079F080EF4C
:10FEEE00FFF0000E766F000E776F000E786F000E2B
:10FEFE00796F000E446E000E456EC80E466E420EB1
:10FF0E00476E76C040F077C041F078C042F079C0BD
:10FF1E0043F07EECEEF040C059F041C05AF042C0C2
:10FF2E005BF043C05CF0E4ECE5F059C074F05AC0ED
:10FF3E0075F08DC070F08EC071F08FC072F090C0F1
:10FF4E0073F085C059F086C05AF087C05BF088C048
:10FF5E005CF0E4ECE5F000019151020DF3CF68F096
:10FF6E00F4CF69F068516625D96E69516721DA6E52
:10FF7E0059C0DEFF5AC0DDFF9151020D66C068F018
:10FF8E0067C069F0F3506827F45069231E0E682588
:10FF9E00D96E000E6921DA6E74C0DEFF75C0DDFF0A
:10FFAE0070C059F071C05AF072C05BF073C05CF053
:10FFBE00E4ECE5F000019151020D66C068F067C0F7
:10FFCE0069F0F3506827F45069233C0E6825D96E0A
:10FFDE00000E6921DA6E59C0DEFF5AC0DDFF912B8B
:10FFEE00090E9165FDEFFFF0FFEFFFF096EFFAF0CF
:02FFFE001200EF
:020000040020DA
:10000000FF0FFF0FFF0FFF0FFF0FFF0FFF0FFF0F80
:020000040030CA
:0C000000AAFFFFFF9FFFFFFFFFFFFFFFB5
:00000001FF
